:100000000C9472090C94BB090C94BB090C94BB09A9
:100010000C94BB090C94BB090C94BB090C94BB0950
:100020000C94BB090C94BB090C94F9230C94D024B8
:100030000C94671B0C94BB090C94BB090C94BB0972
:100040000C94BB090C94BB090C94BB090C94BB0920
:100050000C94BB090C94CF1B0C94BB090C94BB09EA
:100060000C94BB090C94BB090C94BB090C94BB0900
:100070000C94BB090C94BB090C94BB090C94BB09F0
:100080000C94BB090C94BB090C94BB090C94BB09E0
:100090000C94BB090C94BB0929003A003B003C00BE
:1000A0003D003E003F00400041004200430044004C
:1000B000450000004A0049004B0053004C0000007E
:1000C0000000000000000000000000000000000030
:1000D00000000000000000000000000000005F00C1
:1000E000600061002D001E001F0020002100220082
:1000F000230024002500260027002D002E000000EC
:100100002A0000005C005D005E002B00000014006F
:100110001A000800150017001C0018000C0012003F
:1001200013002F0030003100000059005A005B001E
:100130003900000004001600070009000A000B0047
:100140000D000E000F0033003400280000000000F6
:100150000000620000000000E1001D001B0006001E
:1001600019000500110010003600370038000000AB
:10017000E50000005200000000004E00E000E30037
:100180000000E200000000002C0000000000000061
:100190000808015100004C05500051004F000000BC
:1001A0004D000100010001000100010001000100FB
:1001B0000100010001000100010001000000010038
:1001C000010001000100010000000000000000002B
:1001D000000000000000000000000000000000001F
:1001E0000000000000000000010052000100350284
:1001F0001E021F02200221022202230224022502E3
:10020000260227022D022E020000010000005000ED
:1002100028004F0001000000010001000100010062
:100220000100010001000100010001002F02300265
:100230003102000001005100010001000000010036
:1002400001000100010001000100010001000100A6
:100250003302340201000000000000000100000031
:100260000000010001000100010001000100010087
:100270000100360237023802000001000000A90028
:1002800000000000007001000100000001000000FB
:10029000000001000000000000000100010000005B
:1002A0000100AC00AA00AB00000001000100010049
:1002B0000100010001000100010001000100010036
:1002C0000100010001000000010001000100010027
:1002D000010000000000000000000000000000001D
:1002E000000000000000000000000000000000000E
:1002F00000000100010001000100010001000100F7
:1003000001000100010001000100010001000100E5
:1003100001000000010000000100010001000100D7
:1003200000000100010001000100010001000100C6
:1003300001000100010001000100010000000100B6
:1003400001000100010000000100010001000100A6
:100350000100010001000100010001000100010095
:10036000000000000000010000000000010001008A
:100370000100010001000100010001000100010075
:100380000100000001000000010000000000010069
:100390000100010000000100000000000100000059
:1003A0000000000001000100000001000100010048
:1003B0000100000001000100010001000100010036
:1003C0000100010001000100010001000100010025
:1003D0000000010001000100010001000000000018
:1003E000000000000000000000000000000000000D
:1003F00000000000000000000000000001000100FB
:1004000001000100010001000100010001000100E4
:1004100001000100010001000100010000000100D5
:1004200000000100010001000100000001000100C6
:1004300001000100010001000100010001000100B4
:1004400001000100010000000100010001000100A5
:100450000000010001000100010001000100010095
:100460000100010001000100010000000000000087
:100470000100000000000100010001000100010076
:100480000100010001000100010001000000010065
:100490000000010000000000010001000100000058
:1004A0000100000000000100000000000000010049
:1004B0000100000001000100010001000000010036
:1004C0000100010001000100010001000100010024
:1004D0000100010001000100010000000100010015
:1004E0000100010001000000000000000000000009
:1004F00000000000000000000000000000000000FC
:1005000000000000000001000100010001000100E6
:1005100001000100010001000100010001000100D3
:1005200001000100010000000100000001000100C5
:1005300001000100000001000100010001000100B4
:1005400001000100010001000100010001000100A3
:100550000000010001000100010000000100010095
:100560000100010001000100010001000100010083
:100570000100010000000000000001000000000078
:100580000100010001000100010001000100010063
:100590000100010001000000010000000100000056
:1005A0000000010001000100000001000000000047
:1005B0000100000000000000010001000000010037
:1005C0000100010001000000010001000100010024
:1005D0000100010001000100010001000100010013
:1005E0000100010000000100010001000100010004
:1005F00000000000000000000000000000000000FB
:1006000000000000000000000000000000000000EA
:1006100001000100010001000100010001000100D2
:1006200001000100010001000100010001000100C2
:1006300000000100000001000100010001000000B5
:1006400001000100010001000100010001000100A2
:100650000100010001000100010000000100010093
:100660000100010000000100010001000100010083
:100670000100010001000100010001000100000073
:100680000000000001000000000001000100010066
:100690000100010001000100010001000100010052
:1006A0000000010000000100000000000100010046
:1006B0000100000001000000000001000000000037
:1006C0000000010001000000010001000100010024
:1006D0000000010001000100010001000100010013
:1006E0000100010001000100010001000100000003
:1006F00001000100010001000100000000000000F5
:1007000000000000000000000000000000000000E9
:1007100000000000000000000000010001000100D6
:1007200001000100010001000100010001000100C1
:1007300001000100010001000100000001000000B3
:1007400001000100010001000000010001000100A2
:100750000100010001000100010001000100010091
:100760000100010000000100010001000100000083
:100770000100010001000100010001000100010071
:100780000100010001000100000000000000010064
:100790000000000001000100010001000100010053
:1007A0000100010001000100010000000100000043
:1007B0000100000000000100010001000000010034
:1007C0000000000001000000000000000100010026
:1007D0000000010001000100010000000100010013
:1007E0000100010001000100010001000100010001
:1007F00001000100010001000000010001000100F2
:1008000001000100000000000000000000000000E6
:1008100000000000000000000000000000000000D8
:1008200000000000010001000100010001000100C2
:1008300001000100010001000100010001000100B0
:1008400001000100000001000000010001000100A2
:100850000100000001000100010001000100010091
:100860000100010001000100010001000100000081
:100870000100010001000100000001000100010071
:100880000100010001000100010001000100010060
:100890000100000000000000010000000000010055
:1008A0000100010001000100010001000100010040
:1008B0000100010000000100000001000000000034
:1008C0000100010001000000010000000000010023
:1008D0000000000000000100010000000100010014
:1008E0000100010000000100010001000100010001
:1008F00001000100010001000100010001000100F0
:1009000001000000010001000100010001000000E1
:1009100000000000000000000000000000000000D7
:1009200000000000000000000000000000000100C6
:1009300001000100010001000100010001000100AF
:1009400001000100010001000100010001000000A0
:100950000100000001000100010001000000010091
:10096000010001000100010001000100010001007F
:100970000100010001000100000001000100010070
:100980000100000001000100010001000100010060
:100990000100010001000100010001000000000051
:1009A0000000010000000000010001000100010042
:1009B0000100010001000100010001000100000030
:1009C0000100000001000000000001000100010022
:1009D0000000010000000000010000000000000015
:1009E0000100010000000100010001000100000001
:1009F00001000100010001000100010001000100EF
:100A000001000100010001000100010000000100DF
:100A100001000100010001000000000000000000D2
:100A200000000000000000000000000000000000C6
:100A300000000000000000000100010001000100B2
:100A4000010001000100010001000100010001009E
:100A50000100010001000100000001000000010090
:100A6000010001000100000001000100010001007F
:100A7000010001000100010001000100010001006E
:100A80000100000001000100010001000000010060
:100A9000010001000100010001000100010001004E
:100AA0000100010001000000000000000100000042
:100AB000000001000100010001000100010001002F
:100AC0000100010001000100000001000000010020
:100AD0000000000001000100010000000100000012
:100AE0000000010000000000000001000100000003
:100AF00001000100010001000000010001000100EF
:100B000001000100010001000100010001000100DD
:100B100001000100010000000100010001000100CE
:100B200001000000000000000000000000000000C4
:100B300000000000000000000000000000000000B5
:100B4000000001000100010001000100010001009E
:100B5000010001000100010001000100010001008D
:100B6000010000000100000001000100010001007F
:100B7000000001000100010001000100010001006E
:100B8000010001000100010001000100000001005E
:100B9000010001000100000001000100010001004E
:100BA000010001000100010001000100010001003D
:100BB0000000000000000100000000000100010032
:100BC000010001000100010001000100010001001D
:100BD0000100000001000000010000000000010011
:100BE0000100010000000100000000000100000001
:100BF00000000000010001000000010001000100F0
:100C000001000000010001000100010001000100DD
:100C100001000100010001000100010001000100CC
:100C200000000100010001000100010000000000BF
:100C300000000000000000000000000000000000B4
:100C400000000000000000000000000001000100A2
:100C5000010001000100010001000100010001008C
:100C6000010001000100010001000100000001007D
:100C7000000001000100010001000000010001006E
:100C8000010001000100010001000100010001005C
:100C9000010001000100000001000100010001004D
:100CA000000001000100010001000100010001003D
:100CB000010001000100010001000000000000002F
:100CC000010000000000010001000100010001001E
:100CD000010001000100010001000100000001000D
:100CE0000000010000000000010001000100000000
:100CF00001000000000001000000000000000100F1
:100D000001000000010001000100010000000100DD
:100D100001000100010001000100010001000100CB
:100D200001000100010001000100000001000100BC
:100D300001000100010000000000000000000000B0
:100D400000000000000000000000000000000000A3
:100D5000000000000000010001000100010001008E
:100D6000010001000100010001000100010001007B
:100D7000010001000100000001000000010001006D
:100D8000010001000000010001000100010001005C
:100D9000010001000100010001000100010001004B
:100DA000000001000100010001000000010001003D
:100DB000010001000100010001000100010001002B
:100DC0000100010000000000000001000000000020
:100DD000010001000100010001000100010001000B
:100DE00001000100010000000100000001000000FE
:100DF00000000100010001000000010000000000EF
:100E000001000000000000000100010000000100DE
:100E100001000100010000000100010001000100CB
:100E200001000100010001000100010001000100BA
:100E300001000100000001000100010001000100AB
:100E400000000000000000000000000000000000A2
:100E50000000000000000000000000000000000092
:100E6000010001000100010001000100010001007A
:100E7000010001000100010001000100010001006A
:100E8000000001000000010001000100010000005D
:100E9000010001000100010001000100010001004A
:100EA000010001000100010001000000010001003B
:100EB000010001000000010001000100010001002B
:100EC000010001000100010001000100010000001B
:100ED000000000000100000000000100010001000E
:100EE00001000100010001000100010001000100FA
:100EF00000000100000001000000000001000100EE
:100F000001000000010000000000010000000000DE
:100F100000000100010000000100010001000100CB
:100F200000000100010001000100010001000100BA
:100F300001000100010001000100010001000000AA
:100F4000010001000100010001000000000000009C
:100F50000000000000000000000000000000000091
:100F6000000000000000000000000100010001007E
:100F70000100010001000100010001000100010069
:100F8000010001000100010001000000010000005B
:100F9000010001000100010000000100010001004A
:100FA0000100010001000100010001000100010039
:100FB000010001000000010001000100010000002B
:100FC0000100010001000100010001000100010019
:100FD000010001000100010000000000000001000C
:100FE00000000000010001000100010001000100FB
:100FF00001000100010001000100000001000000EB
:1010000001000000000001000100010000000100DB
:1010100000000000010000000000000001000100CD
:1010200000000100010001000100000001000100BA
:1010300001000100010001000100010001000100A8
:101040000100010001000100000001000100010099
:10105000010001000000000000000000000000008E
:101060000000000000000000000000000000000080
:10107000000000000100010001000100010001006A
:101080000100010001000100010001000100010058
:10109000010001000000010000000100010001004A
:1010A0000100000001000100010001000100010039
:1010B0000100010001000100010001000100000029
:1010C0000100010001000100000001000100010019
:1010D0000100010001000100010001000100010008
:1010E00001000000000000000100000000000100FD
:1010F00001000100010001000100010001000100E8
:1011000001000100000001000000010000000000DB
:1011100001000100010000000100000000000100CA
:1011200000000000000001000100000001000100BB
:10113000010001000000010012036B00650079004E
:1011400062006F006100720064000000160371000D
:101150006D006B006200750069006C006400650042
:10116000720000000403090409026D00040100A0DC
:10117000FA09040000010301010009211101000125
:101180002240000705810308000A09040100010349
:10119000010200092111010001224D00070582030F
:1011A00008000A09040200010300000009211101DE
:1011B00000012236000705830308000A0904030022
:1011C0000103000000092111010001223900070577
:1011D00084032000011201100100000008EDFE60F0
:1011E0006001000102000105010906A101050719BE
:1011F000E029E71500250195087501810205081908
:101200000129059505750191029501750391010567
:1012100007190029F71500250195F875018102C00D
:1012200005010980A10185021601002603001A812B
:10123000002A8300751095018100C0050C0901A1E9
:10124000018503160100269C021A01002A9C0275E2
:101250001095018100C005010902A1010901A10049
:10126000050919012905150025019505750181025A
:101270009501750381010501093009311581257F2B
:1012800095027508810609381581257F9501750835
:101290008106050C0A38021581257F9501750881A4
:1012A00006C0C005010906A101050719E029E715D7
:1012B00000250195087501810295017508810105D8
:1012C000081901290595057501910295017503918C
:1012D000010507190029FF150026FF00950675086E
:1012E0008100C00011241FBECFEFD0E2DEBFCDBF12
:1012F00004B603FE27C08091AD029091AE02A0918A
:10130000AF02B091B0028730904BA740B04BD1F400
:101310001092AD021092AE021092AF021092B00283
:1013200014BE84B7877F84BF0FB6F894A8958091C8
:101330006000886180936000109260000FBEE0E062
:10134000F8EF099511E0A0E0B1E0E6E3F0E500E098
:101350000BBF02C007900D92A234B107D9F722E06B
:10136000A2E4B1E001C01D92AD3AB207E1F70E94DC
:1013700049210C9419280C94000090E080E0089515
:101380000895089581E0089581FF03C0099A119896
:1013900008950998FCCF81E008950C94C2090E9439
:1013A000DE132FEF84E39CE0215080409040E1F772
:1013B00000C000000C94F41BFF920F931F93CF9377
:1013C000DF938C01FC01C081D1818091B201811138
:1013D0003FC082818823B9F1CE010E944519F82EC1
:1013E000682FCE010E94EB18BE018F2D0E94230BA7
:1013F000EC01B8010E94CD09882309F44AC0B80164
:10140000CE010E94330D882309F443C0C531F0E7B3
:10141000DF0718F5C23080E7D80708F04BC0C115C8
:10142000E0E7DE0789F1C130D047D1F181E0809358
:10143000440180934501C801DF91CF911F910F9125
:10144000FF900C94CB09CE010E941A19F82ECCCF34
:10145000CE010E944519BE01C9CFCC3380E7D80721
:1014600009F4ACC0CD33D04709F7F8018281882355
:1014700009F4CBC0109245010E94991B909343013F
:101480008093420180E2A7C0F801828181110E940D
:10149000CF0980E0DF91CF911F910F91FF900895C8
:1014A000F80182818823A9F380916D028160809385
:1014B0006D02EFCFF8018281882309F4BCCF0E942E
:1014C000F61A811102C00E94DC1A0E94131B90E0E0
:1014D00090939F0280939E02FE01E350F04780911B
:1014E0009E028160E231F105C8F4E758F54F0C9493
:1014F000C6278B0A970A9B0A9F0AA30AA70AAB0A68
:10150000AF0AB30AB70ABB0ABF0AC30AC70ACB0AA3
:10151000CF0AD30AD70A80919E02826080939E02EE
:1015200080919E020E94171B0E94DE13B2CF809111
:101530009E028460F3CF80919E028860EFCF8091FD
:101540009E028061EBCF80919E028062E7CF809106
:101550009E028064E3CF80919E028068DFCF8091FD
:101560009E028460EACF80919E028E7FD7CF8091C9
:101570009E028D7FD3CF80919E028B7FCFCF8091B3
:101580009E02877FCBCF80919E028F7EC7CF8091B6
:101590009E028F7DC3CF80919E028F7BBFCF8091B3
:1015A0009E028F77BBCF80919E028B7FEACF909176
:1015B0009E02892F97FB87F98058B0CFF80182816E
:1015C000882361F0109244010E94991B909343017B
:1015D0008093420182E00E9468115BCF80914401B8
:1015E00081110FC080914201909143010E94A51B7F
:1015F000883C910530F486E20E943D1086E20E940C
:10160000191182E00E946F1144CF80914501811130
:101610000FC080914201909143010E94A51B883C1C
:10162000910530F487E20E943D1087E20E94191173
:1016300080E2E8CF0C94820D0C94840D0C94C409C4
:101640000C941E0B0895972F70E023E1929F600D7C
:10165000711D1124FB0195E8899FE00DF11D1124F6
:10166000EE0FFF1FE856FF4F859194910895FC01FE
:10167000EE0FFF1FE85CFE4E8591949108950E9445
:10168000230B0E94B20C811520E4920708F08DC054
:10169000811540E3940708F0E8C0803E910508F00A
:1016A00071C0803C910508F0CCC0883A910580F467
:1016B000853A910508F0CAC08130910509F46EC0E1
:1016C00020F08430910508F069C090E080E0089532
:1016D0008D3B9105D0F7883A910509F404C1893A08
:1016E000910509F403C18A3A910509F402C18B3AC4
:1016F000910509F401C18C3A910509F400C18B3BB5
:10170000910509F4FFC08C3B910509F4FEC08D3AA8
:10171000910509F4FDC0803B910509F4FCC08E3AA7
:10172000910509F4FBC08F3A910509F4FAC0813B99
:10173000910509F4F9C0823B910509F4F8C0833B97
:10174000910509F4F7C0843B910509F4F6C0853B87
:10175000910509F4F5C0863B910509F4F4C0873B77
:10176000910509F4F3C0883B910509F4F2C0893B67
:10177000910509F4F1C08A3B910509F4F0C080E0BD
:1017800094E408958F3F910509F048F4803F910556
:1017900008F067C0883E910508F097CF089581153D
:1017A00020E2920708F05FC00895811543E5940791
:1017B00060F5811522E5920708F062C0811541E5C8
:1017C000940708F058C0811520E5920708F450C02E
:1017D0009C0154E0369527955A95E1F7922F937026
:1017E000482F437021E030E002C0220F331F4A959A
:1017F000E2F73C68392B86958695837040E2849F9A
:10180000C0011124822B932B0895811545E594077F
:1018100050F4811524E5920708F446C0982F8827D4
:10182000846F906A0895811546E5940708F450C0C6
:101830009C0130569F702115304108F046CF9062D0
:101840000895805C91090E94370B0895853A9105AF
:1018500009F443C0863A910509F042C082E890E459
:101860000895906508959F70EECF9927906C089524
:101870009F70906A0895982F8827816F906A0895C5
:10188000AC014370552721E030E002C0220F331F26
:101890004A95E2F78695869540E2849FC00111241F
:1018A000822B932B9C680895AC014370552721E04F
:1018B00030E002C0220F331F4A95E2F786958695E5
:1018C00040E2849FC0011124822B932B9A680895D3
:1018D000982F882788279F71B2CF81E890E40895D8
:1018E00083E890E4089582EE94E4089589EE94E408
:1018F00008958AEE94E4089585EB94E4089586EBC8
:1019000094E4089583EB94E4089584EB94E40895BB
:1019100087EB94E408958CEC94E408958DEC94E4C2
:10192000089583E895E408958AE895E4089582E9A6
:1019300095E4089584E995E4089581E296E4089594
:1019400083E296E4089584E296E4089585E296E4BD
:10195000089586E296E4089587E296E408958AE27F
:1019600096E41CCF8238910549F1B0F4813391059A
:1019700009F45CC048F48932910509F452C08A32F6
:10198000910509F458C008958533910509F444C0C0
:101990008933910599F00895833E910531F138F42A
:1019A000803E910591F0823E9105B1F00895863E0A
:1019B000910511F1873E910541F1089520919E0214
:1019C0002370C9F080EE90E0089520919E0220FFE0
:1019D00012C089E390E0089520919E0222FF0BC07F
:1019E00024FF2EC090E080E0089520919E0222FD09
:1019F0002AC024FDF7CF089520919E0223FFFBCF3C
:101A000024FDF0CF87EE90E0089520919E0223FF01
:101A1000F0CF86EE90E0089520919E0225FD16C03D
:101A2000089520919E0225FD14C0089520919E02E4
:101A300026FD12C0089520919E0226FD10C0089533
:101A400083EE90E0089582EE90E0089589E290E0C0
:101A5000089585E390E008958AE290E0089581E397
:101A600090E0C9CF08950F931F93CF938C01FB0192
:101A70008281811106C0C1E08C2FCF911F910F91FF
:101A80000895C0915301C11125C00531104799F740
:101A90000E94320D81E0809353010E94991B909324
:101AA0005201809351011092460110924801109208
:101AB000470110924A011092490110924C01109274
:101AC0004B0110924E0110924D0110925001109254
:101AD0004F01D2CF80915101909152010E94A51BDC
:101AE000883C910540F680914601E82FF0E0EE0F2A
:101AF000FF1FE95BFE4F118300838F5F80934601D8
:101B0000C0E0BACF0C94C0090C94C10985B78068B5
:101B100085BF85B7806885BFA6E2B1E061E070E06F
:101B20008D91E82FE295EF70F0E041A18F709B015D
:101B300001C0220F8A95EAF7922F9095942391A3E2
:101B400082A1822B82A381E0AD32B80749F7A3E1DD
:101B5000B1E061E070E08D91E82FE295EF70F0E088
:101B600041A18F709B0101C0220F8A95EAF7922F45
:101B70009095942391A382A1822B82A381E0A63227
:101B8000B80749F7E0E7F1E0A4E5B1E08CE891E0BF
:101B900011921192119211921D921D921D921D92FD
:101BA0008E179F07A9F70C941A0B2F923F924F9212
:101BB0005F926F927F928F929F92AF92BF92CF92DD
:101BC000DF92EF92FF920F931F93CF93DF93CDB7E6
:101BD000DEB72C970FB6F894DEBF0FBECDBF84E5FD
:101BE000882E81E0982E26E231E03A832983988678
:101BF0008F8222242394312CC12CD12C7601C394C2
:101C0000AA24A394AF81B8854D905D906D907C908F
:101C10001397FD011082118212821382A981BA8169
:101C20008D91BA83A983E82FE295EF70F0E091A13E
:101C30008F70910102C0220F331F8A95E2F73C8317
:101C40002B83822F892B81A382A1B22EB0948B216A
:101C500082A330EA3A95F1F743E151E05E834D8388
:101C600090E080E0AD81BE813D91BE83AD83A32F26
:101C7000A295AF70B0E090960C91AF81B8854D9170
:101C80005D916D917C9149875A876B877C873F7006
:101C9000A10102C0440F551F3A95E2F79A01202393
:101CA00009F081C0B701A601082E04C0440F551FDA
:101CB000661F771F0A94D2F78A019B0149855A85CE
:101CC0006B857C85402B512B622B732BAF81B885A4
:101CD0004D935D936D937C9313970196833191059A
:101CE00009F0C0CF81A1B822B1A282A1BB818B2B08
:101CF00082A3EF81F88580819181A281B38148160A
:101D000059066A067B0641F0A0928C010E94991B3D
:101D100090938E0180938D012F8138852C5F3F4FEA
:101D200038872F8349815A814D52514009F06ACF3B
:101D300080918C018823D9F080918D0190918E0142
:101D40000E94A51B069798F0E0E7F1E080E791E09C
:101D5000D4014D915D916D917D914D0141935193D0
:101D6000619371938A179B0799F710928C010E94D7
:101D70001C0B81E02C960FB6F894DEBF0FBECDBFD2
:101D8000DF91CF911F910F91FF90EF90DF90CF9057
:101D9000BF90AF909F908F907F906F905F904F908B
:101DA0003F902F90089500E010E0980187CF94E0D5
:101DB000899FF0011124E059FE4F60817181828179
:101DC00093810895089590939401809393010895C9
:101DD000E0919301F0919401309721F00190F0810E
:101DE000E02D099480E00895E0919301F091940131
:101DF000309721F00280F381E02D09940895E0915D
:101E00009301F0919401309721F00480F581E02D49
:101E10000994089520919101309192012817390772
:101E200071F09093920180939101E0919301F09170
:101E30009401309721F00680F781E02D09940895F0
:101E400020918F01309190012817390771F09093FC
:101E5000900180938F01E0919301F091940130976C
:101E600021F00084F185E02D0994089508950C94E3
:101E7000360F0E94901B0E94860D0C94601C4F929E
:101E80005F926F927F928F929F92AF92BF92DF92FA
:101E9000EF92FF920F931F93CF93DF93CDB7DEB7EF
:101EA0002A970FB6F894DEBF0FBECDBF0E94D50DA6
:101EB00026E9E22E21E0F22E10E000E0D02E802F65
:101EC0000E94D70E4B015C01F70141905190619047
:101ED00071907F01481459046A047B0409F476C0A8
:101EE00080916D0281FD0E94E20E90E080E0482426
:101EF00059246A247B24B301A201082E04C07695DC
:101F00006795579547950A94D2F740FF5AC08E833C
:101F1000DF82412C512C3201439404C0440C551CE7
:101F2000661C771C8A95D2F784209520A620B720BE
:101F300081E089288A288B2809F480E088870E941C
:101F4000991B8160782F9A8789874E815F81688588
:101F50008A850E941310000F111F000F111FF80136
:101F6000EA56FE4F80819181A281B3818425952517
:101F7000A625B72580839183A283B3830E94E31EA5
:101F80000E94E80E909195018917B9F10E94E80E20
:101F9000809395012A960FB6F894DEBF0FBECDBF91
:101FA000DF91CF911F910F91FF90EF90DF90BF9045
:101FB000AF909F908F907F906F905F904F900C9418
:101FC000200B01968331910509F095CF0F5F1F4FCC
:101FD0000730110509F072CF8FEF89838A831B8246
:101FE0000E94991B8160782F9D838C8349815A813F
:101FF0006B818D810E941310C1CF2A960FB6F89481
:10200000DEBF0FBECDBFDF91CF911F910F91FF902B
:10201000EF90DF90BF90AF909F908F907F906F90E8
:102020005F904F900895CF93DF93CDB7DEB72B9796
:102030000FB6F894DEBF0FBECDBF4F8358876987B8
:102040007A878B871E821D8285E0FE013796DE012E
:10205000119601900D928A95E1F749815A816B8121
:102060007C818D819E812B960FB6F894DEBF0FBECA
:10207000CDBFDF91CF910C949016882309F4D8C07E
:10208000823871F40E94E80E81FDD2C089E30E947B
:10209000E5190E94AD1A89E30E94221A0C94AD1A28
:1020A000833859F40E94E80E80FDC2C083E50E9487
:1020B000E5190E94AD1A83E5EFCF843859F40E94E8
:1020C000E80E82FDB5C087E40E94E5190E94AD1AB2
:1020D00087E4E2CF9CEF980F913A18F40E94E5193B
:1020E000DDCF90E2980F983050F4877091E001C0F6
:1020F000990F8A95EAF7892F0E94641ACFCF9BE542
:10210000980F933070F4853A31F0863A39F083E8CD
:1021100090E00C940A0F81E890E0FBCF82E890E019
:10212000F8CF98E5980F953108F082C0883A09F405
:1021300040C0893A09F440C08A3A09F440C08B3A59
:1021400009F440C08C3A09F440C08B3B09F440C00C
:102150008C3B09F440C08D3A09F440C0803B09F43F
:1021600040C08E3A09F440C08F3A09F440C0813B28
:1021700009F440C0823B09F440C0833B09F440C0ED
:10218000843B09F440C0853B09F440C0863B09F418
:1021900040C0873B09F440C0883B09F440C0893BFC
:1021A00009F440C08A3B09F440C090E080E00C9400
:1021B000200F82EE90E0FBCF89EE90E0F8CF8AEE20
:1021C00090E0F5CF85EB90E0F2CF86EB90E0EFCF9B
:1021D00083EB90E0ECCF84EB90E0E9CF87EB90E0ED
:1021E000E6CF8CEC90E0E3CF8DEC90E0E0CF83E89D
:1021F00091E0DDCF8AE891E0DACF82E991E0D7CFB4
:1022000084E991E0D4CF81E292E0D1CF83E292E001
:10221000CECF84E292E0CBCF85E292E0C8CF86E2D7
:1022200092E0C5CF87E292E0C2CF8AE292E0BFCFD0
:102230000895882309F44BC0823871F40E94E80E97
:1022400081FF45C089E30E94E5190E94AD1A89E328
:102250000E94221A0C94AD1A833859F40E94E80E99
:1022600080FF35C083E50E94E5190E94AD1A83E521
:10227000EFCF843859F40E94E80E82FF28C087E42B
:102280000E94E5190E94AD1A87E4E2CF9CEF980FF7
:10229000913AF0F290E2980F983050F4877091E004
:1022A00001C0990F8A95EAF7892F0E946A1AD2CF46
:1022B0009BE5980F933020F490E080E00C940A0F97
:1022C000885A853120F490E080E00C94200F089526
:1022D000882321F00E94641A0C94AD1A0895882373
:1022E00021F00E946A1A0C94AD1A08958F929F9261
:1022F000AF92BF92DF92EF92FF920F931F93CF9313
:10230000DF937C01D62FC72FFC01058102950F704A
:10231000128111110E94831A0E94DE19D82E88237F
:1023200071F0112321F180E28D0F883000F182E0FD
:102330000E94C8190E94DE1991E0D82ED926EC2FF0
:10234000E295EF70F0E0E955FE4E0C94C627B91106
:10235000B911091209124B126712E611E611721235
:10236000E6110A130A137D13E611E6118613D12C28
:10237000E6CF0C2F0F70C07F11F00295007F112364
:10238000A9F0002359F080E28D0F883010F0D111B0
:1023900009C0802F0E94641A0E94AD1A8D2F0E94DE
:1023A0003D1014C0802F0E94751AF6CF8D2F0E9409
:1023B0001911002359F080E28D0F883010F0D111EF
:1023C00024C0802F0E946A1A0E94AD1ADD2009F4F1
:1023D000A4C10E94BB1980FDA0C1F70112820E9416
:1023E000B5190E942F18C7010E9499130E94B519B0
:1023F000DF91CF911F910F91FF90EF90DF90BF90F1
:10240000AF909F908F900C945018802F0E947B1A51
:10241000DBCFFC2FFF70BF2EC07FC03219F0B2940B
:1024200080EFB822DD2369F0D13029F1112369F161
:10243000002359F0F701858180FFB0CF8F7085832D
:1024400004C0112361F0011104C08B2D0E9468119A
:10245000BDCF8B2D0130D1F70E94971AB7CF011154
:1024600006C00E949A1A8B2D0E946F11AFCF0130C7
:1024700009F4ACCFF6CF112321F0063008F0A6CF37
:10248000E4CF053008F0A2CFEECF002361F38D2F0B
:102490000E9419119BCF8C2F86958695837069F0C9
:1024A000813009F093CF8D2F9C2F9370111102C0B2
:1024B00090E080E00E94200F89CF8D2F9C2F937099
:1024C000111102C090E080E00E940A0F7FCF8D2F93
:1024D000112329F00E94EC1D0E94D81E77CF0E9484
:1024E000541EFACF8C2F837009F047C011116ECFA4
:1024F0002D2F229526952770220F220F6D2F6F709A
:10250000862E912CB12CA12C022E04C0880C991C73
:10251000AA1CBB1C0A94D2F760E070E0CB01D4FF88
:102520000FC06FE070E080E090E004C0660F771F9E
:10253000881F991F2A95D2F7609570958095909580
:10254000C695C695C370C23051F080F468297929C8
:102550008A299B29C13071F00E94D81737CF68298A
:1025600079298A299B290E94F41730CF0E94D81715
:10257000C501B4010E94BC1729CF8695112311F023
:102580008C2F8170882309F421CF2D2F2295269539
:102590002770220F220F6D2F6F70862E912CB12C79
:1025A000A12C022E04C0880C991CAA1CBB1C0A94E6
:1025B000D2F760E070E0CB01D4FF0FC06FE070E0B5
:1025C00080E090E004C0660F771F881F991F2A954E
:1025D000D2F76095709580959095C695C695C37015
:1025E000C23051F080F4682979298A299B29C130A9
:1025F00071F00E94B218EACE682979298A299B29AC
:102600000E94CE18E3CE0E94B218C501B4010E9408
:102610009618DCCEE0E2ED0FE53108F062C0F0E0A4
:10262000EC5EFC4E0C94C627291329132913291399
:1026300029132913291329132913291329132913BA
:102640002913291329132913361344134B13521337
:102650005C13DF708C2F8F71112321F00E942F18D3
:102660008D2FF4CE0E9450188D2FFECE112341F0F5
:10267000053008F0ABCE8C2F8F710E947518A6CE56
:10268000063008F0A3CEF7CF8C2F8F71112339F0CD
:102690000E942F189BCE8C2F8F711123C9F30E949B
:1026A000501894CE112329F08C2F8F710E941A1884
:1026B0008DCE0E9410188ACE112349F0CF718C2F35
:1026C0000E942F1863E08C2F0E94BF197FCE81E0FB
:1026D0000E94C819023008F479CE82E00E94C8191D
:1026E00075CE112329F0011159CE8C2F8F71D0CFC7
:1026F0000111CDCE8C2F8F71D2CF4C2F4F706D2FFB
:10270000C7010E94BD090E94391760CE4C2F4F703F
:102710006D2FC7010E94220B59CEDF91CF911F91DF
:102720000F91FF90EF90DF90BF90AF909F908F90B0
:1027300008950F931F93CF93DF93EC0198818981C4
:102740002B813C81232B39F08F3F19F481E09F3F8F
:1027500019F080E001C081E080FD17C0CE010E9429
:10276000DC09882391F0688179818A810E9491191E
:102770008C010E94EA180E94B117B801CE01DF91C6
:10278000CF911F910F910C947611DF91CF911F91F2
:102790000F9108950E94831A0E94941A0E94561A5B
:1027A0000E94AD1A0E94851F0E94D81E90E080E012
:1027B0000E940A0F90E080E00C94200F0E94721A91
:1027C0000C94CA130E948719E92FE295EF70E2502A
:1027D000EE30E0F4F0E0E151FC4E0C94C627FD131E
:1027E000FD13061406140814061406140614FD132B
:1027F000FD130D14061406140D14803F19F020F477
:10280000803E20F481E00895843FE1F380E0089564
:10281000803EC0F3813FD1F7F5CF93FB882780F945
:102820000895CF93DF9300D000D01F92CDB7DEB7CD
:102830000F900F900F900F900F90DF91CF91089510
:10284000CF93DF9300D000D000D0CDB7DEB726966F
:102850000FB6F894DEBF0FBECDBFDF91CF910895C4
:102860001F93CF93DF93C091B30116E08091B40121
:102870008C1304C0DF91CF911F910895D0E01C9F6D
:10288000F0011D9FF00D1124EB54FE4F408151814A
:1028900062817381848195810E9420142196C77082
:1028A000E5CF4091E5015091E6016091E70170911B
:1028B000E8018091E9019091EA010C9420141F93A2
:1028C000CF93DF938091EA01807FD1F48091E7017B
:1028D0008823B1F08091B301D091B401B091E501AA
:1028E000C091E6014091E8015091E901A1E0BF3FAC
:1028F00009F0A0E0BA016095709516E0D81304C005
:10290000DF91CF911F91089521E04115510521F0EC
:102910002A2FCF3F09F020E090E020FD38C0189F1B
:10292000F001199FF00D1124EB54FE4F21812C135F
:102930002EC020812B132BC02281211128C023817E
:1029400034812417350700F1241B350B283C310551
:10295000F0F42091EA012F7020612093EA0126E033
:10296000289FF001299FF00D1124E654FE4F80812D
:102970008F708061808385EE91E00E949913DF91D2
:10298000CF911F910C943014260F371FDFCF019683
:102990008770B4CFAF92BF92CF92DF92EF92FF9247
:1029A0000F931F93CF93DF93CDB7DEB761970FB629
:1029B000F894DEBF0FBECDBF8C0185E0F801DE01CB
:1029C0001D9601900D928A95E1F7D8014C911196D0
:1029D0005C9111971296EC903091E5016091E601BF
:1029E0008091E8019091E90121E0009731F06F3F7B
:1029F00019F421E03F3F09F020E0B22FB170BB2E67
:102A000020FD80C1F801C380D480A090E701AA20F6
:102A100009F427C1C816D906D0F1D601A81BB90BF5
:102A2000CD01FF24F394883C910508F0F12C8091AE
:102A3000EA01982F907FFF2009F4CAC0911187C046
:102A4000FE2C651329C0341327C0E11025C08F70F8
:102A500080618093EA010E94511485EE91E00E940A
:102A600099138091EA01F80185838F2D61960FB645
:102A7000F894DEBF0FBECDBFDF91CF911F910F91B4
:102A8000FF90EF90DF90CF90BF90AF90089580952A
:102A900090958C0D9D1DC5CF81E0CD2831F05F3F15
:102AA00019F481E04F3F09F080E080FD24C081E00F
:102AB0008E25F82FF170DF2E80FF3FC08091B3018B
:102AC0002091B40136E0821318C04D875E878D8552
:102AD0009E850E948719292F22952F70223008F198
:102AE000243030F59F7009F1D80115969C91907FA4
:102AF000E1F4FB2CBACF80E0DCCF90E0389FF0010E
:102B0000399FF00D1124EB54FE4F6181561306C01E
:102B10006081461303C062816E110FC001968770F9
:102B2000D2CF9F7011F0882321F3805E883008F3A4
:102B3000C8010E949913BD2CDCCFEE2009F495CF7B
:102B40008091EA0181608093EA01F12C8ECF6513B8
:102B500012C0341310C0E1100EC0F8018583C80103
:102B60000E94991386E0F801A5EEB1E001900D9264
:102B70008A95E1F741C04D875E878D859E850E94CD
:102B8000E213882309F4C8C0EE2009F4C5C080917F
:102B9000EA01803270F02091E5013091E60138873A
:102BA0002F831986DB86CA868C87CE0107960E9402
:102BB000991386E0F801A5EEB1E001900D928A9597
:102BC000E1F70E945F140E945114FF24F3944DCF4B
:102BD000911115C07C2DD98AC88A6E2D89890E94D1
:102BE000111485EE91E00E94991386E0E5EEF1E084
:102BF000DF011D928A95E9F70E94511436CF6513C3
:102C000012C0341310C0E1100EC0F8018583C80152
:102C10000E949913E5EEF1E086E0DF011D928A95AE
:102C2000E9F7FA2C22CF4D875E878D859E850E941D
:102C3000E213882309F470C0EE2009F46DC080917E
:102C4000EA01803208F4B5CF2091E5013091E60128
:102C50003A8329831B82DD82CC828E83CE0101964A
:102C6000A6CFC816D90638F1F601E81BF90BCF013B
:102C7000F12C883C910508F03DC0FE2CEE2009F4B3
:102C80004BC0651326C0341324C08091EA0180FD37
:102C900017C0982F907FA1F0D80115968C931597A7
:102CA000903F09F45CCF982F907F905F8F70892BB5
:102CB00015968C9354CF809590958C0D9D1DD8CFF3
:102CC00086E0F801A5EEB1E001900D928A95E1F75A
:102CD000CCCE4D875E878D859E850E94E213811143
:102CE00068CF8091EA0181608093EA01C8010E9467
:102CF0009913BBCE7C2DD98AC88A6E2D89890E94F2
:102D0000111473CFEE2041F04D875E878D859E852F
:102D10000E94E21381114DCFC8010E94991355CF33
:102D20001F93CF93DF93CDB7DEB72C970FB6F894F0
:102D3000DEBF0FBECDBF4F83588769877A878B87E9
:102D40009C87CE0107960E94CA14882309F442C0CA
:102D50009F8188852A853B85232B39F08F3F19F485
:102D600081E09F3F19F080E001C081E080FD08C054
:102D70004F81588569857A858B859C850E942014B2
:102D800016E08091B3019091B401891709F467C0EE
:102D9000819FC00111248B549E4F0E94CA14882326
:102DA00009F45DC0E091B3011E9FF0011124EB54C2
:102DB000FE4F4081518162817381848195810E949F
:102DC00020148091B30190E0019687709927809339
:102DD000B301D7CF86E0FE013796DE011196019050
:102DE0000D928A95E1F79F8188852A853B85232B63
:102DF00039F08F3F19F481E09F3F19F080E001C066
:102E000081E080FDBDCF2091B40130E0C901019681
:102E1000877099274091B3014817190699F096E0F9
:102E2000929FD001939FB00D1124AB54BE4FFE0171
:102E3000319601900D929A95E1F78093B4010E942A
:102E400030149ECF0E94DE131092B4011092B30191
:102E500086E0E5EEF1E0DF011D928A95E9F72C9618
:102E60000FB6F894DEBF0FBECDBFDF91CF911F919B
:102E70000895EF92FF920F931F93CF93DF938C01EE
:102E8000892B81F0F12CEE24E394E8012196F801DE
:102E90008491843770F4843008F05FC08130B1F0E1
:102EA0008230A1F1DF91CF911F910F91FF90EF90B0
:102EB0000895853709F44CC008F43DC09CE7980F8D
:102EC000903780F78F770E94191149C00E5F1F4F0E
:102ED000FE01849190E2980F983060F48770FE2D87
:102EE00001C0FF0F8A95EAF78F2F0E94861A0E9471
:102EF000AD1A02C00E943D108F2D815030F2EFE9D3
:102F0000FFE03197F1F700C00000F7CF0E5F1F4FD1
:102F1000FE01849190E2980F983050F48770FE2D56
:102F200001C0FF0F8A95EAF78F2F0E948C1ADFCF1E
:102F30000E941911E1CF0E5F1F4FFE01C491C150D5
:102F4000D8F28FE99FE00197F1F700C00000F7CFBA
:102F50000E5F1F4FFE01F490CFCF0E943D108E01F7
:102F6000CBCF08956093440270934502809346024C
:102F7000909347020C94CA130F931F93009144023D
:102F8000109145022091460230914702DC01CB01AD
:102F9000802B912BA22BB32B80934402909345025C
:102FA000A0934602B09347021F910F910C94CA134D
:102FB0000F931F9300914402109145022091460205
:102FC00030914702DC01CB0180239123A223B3235C
:102FD0008093440290934502A0934602B093470227
:102FE0001F910F910C94CA130F931F9300914402E9
:102FF000109145022091460230914702DC01CB013D
:1030000080279127A227B3278093440290934502FB
:10301000A0934602B09347021F910F910C94CA13DC
:10302000109240021092410210924202109243020A
:103030000C94CA1341E050E060E070E004C0440F1B
:10304000551F661F771F8A95D2F740934002509311
:10305000410260934202709343020C94CA1341E010
:1030600050E060E070E004C0440F551F661F771FFA
:103070008A95D2F78091400290914102A09142023C
:10308000B0914302842B952BA62BB72B8093400243
:1030900090934102A0934202B09343020C94CA134E
:1030A00041E050E060E070E004C0440F551F661F2F
:1030B000771F8A95D2F740955095609570958091CD
:1030C000400290914102A0914202B09143028423B8
:1030D0009523A623B7238093400290934102A093A7
:1030E0004202B09343020C94CA1341E050E060E006
:1030F00070E004C0440F551F661F771F8A95D2F7F2
:103100008091400290914102A0914202B09143020D
:1031100084279527A627B7278093400290934102E2
:10312000A0934202B09343020C94CA130F931F93CF
:1031300000914002109141022091420230914302DD
:10314000DC01CB01802B912BA22BB32B809340026F
:1031500090934102A0934202B09343021F910F91BA
:103160000C94CA130F931F930091400210914102D7
:103170002091420230914302DC01CB018023912354
:10318000A223B3238093400290934102A093420272
:10319000B09343021F910F910C94CA130F931F9386
:1031A000009140021091410220914202309143026D
:1031B000DC01CB0180279127A227B327809340020F
:1031C00090934102A0934202B09343021F910F914A
:1031D0000C94CA13089523E1929F800D1124982F17
:1031E000977071E001C0770F9A95EAF786958695FA
:1031F000869525E0829FC001112450E040E0A62F73
:10320000B0E0FC01E40FF51FE551FE4F60819D0128
:10321000042E02C0369527950A94E2F72170219575
:1032200026272723262720834F5F5F4F45305105F0
:1032300041F7089523E1929F800D1124982F9770F4
:1032400086958695869525E0829FA001112470E0E1
:1032500060E080E0FA01E60FF71FE551FE4F2081A4
:1032600030E0092E02C0369527950A94E2F72170C6
:103270003327062E01C0220F0A94EAF7822B6F5FD4
:103280007F4F6530710531F70895BF92CF92DF927D
:10329000EF92FF920F931F93CF93DF938C01C09017
:1032A0004002D0904102E0904202F09043028091AF
:1032B000440290914502A0914602B0914702C82A6B
:1032C000D92AEA2AFB2ACFE1D0E0BC2ED701C601D9
:1032D0000C2E04C0B695A795979587950A94D2F7BA
:1032E00080FD0EC0219788F7B12C8B2DDF91CF91F7
:1032F0001F910F91FF90EF90DF90CF90BF900895B6
:10330000B8018C2F0E943F0B019761F3EECFCF9352
:10331000DF93EC010E944519BE01DF91CF910C941F
:103320003F0B1F93CF93DF93EB019091B201992351
:1033300031F0CB01DF91CF911F910C948719882335
:1033400079F0CB010E944519182F682FCE010E94F9
:10335000EB18BE01812FDF91CF911F910C943F0B91
:10336000CB010E941A19182FF4CF8091480285953D
:10337000859585950895809148028770089598E015
:10338000899F90011124622B609348020C942F189E
:10339000909148028095892380934802282F2770B6
:1033A00061F4282F082E000C330B9217130629F016
:1033B0008595859585950C945018089590914802AF
:1033C000977081E009F480E00895909112019923AB
:1033D000E1F090919E0297FF18C0E82FE695E695E0
:1033E000E695EF3139F12091000130910101E20FB2
:1033F000F32FF11D877021E030E001C0220F8A9584
:10340000EAF78181822B8183089520910001309118
:103410000101F90132969FEF40E05191851751F07B
:103420009F3F19F4511101C0942F4F5F4E31A9F7FE
:103430009F3F09F40895290F311D97FD3A95F90131
:1034400082830895909112019923F1F090919E0248
:1034500097FF1AC0E82FE695E695E695EF3129F13A
:103460002091000130910101E20FF32FF11D282F6F
:10347000277081E090E001C0880F2A95EAF78095D7
:103480009181892381830895209100013091010168
:10349000F9013296205E3F4F9191891303C0DF01FD
:1034A00011971C92E217F307B9F7089581E090E0B5
:1034B000E0910001F0910101E80FF91F10820196DF
:1034C00080329105A9F7089590916C02892B809321
:1034D0006C020895982F909580916C0289238093B7
:1034E0006C02089510926C02089590916B02892BE2
:1034F00080936B020895982F909580916B02892399
:1035000080936B02089510926B02089590916A0265
:10351000892B80936A020895982F909580916A0272
:10352000892380936A02089510926A020895809315
:1035300049020895109249020895209100013091A6
:103540000101F9013196205E3F4F80E09191911188
:103550008F5FE217F307D1F70895E0910001F09132
:10356000010180916C028083E0910001F0910101E2
:10357000808190916B02892B8083E0910001F09112
:103580000101808190916A02892B80839091490288
:10359000992361F0E0910001F09101018081892B74
:1035A00080830E949D1A811110924902809100012E
:1035B000909101010C94F40E6DEE7EEF90E080E0AE
:1035C0000E94032860E082E090E00E94F12760E022
:1035D00083E090E00E94F12760E084E090E00E94A8
:1035E000F12760E085E090E00C94F12790E080E026
:1035F0000E94EB2721E08D3E9E4F09F020E0822FB4
:10360000089582E090E00C94E327682F82E090E038
:103610000C94F12783E090E00C94E327682F83E07B
:1036200090E00C94F12784E090E00C94E327682F5D
:1036300084E090E00C94F1278091A402843039F169
:1036400010926E0288E190E020E40FB6F894A895FD
:10365000809360000FBE2093600080E00E94200BEA
:1036600083B7817F846083BF83B7816083BF789491
:10367000889583B78E7F83BF0FB6F894A895809105
:103680006000886180936000109260000FBE089512
:1036900008950895CF930E94481B0E94D50D0E9463
:1036A000491BC0E08C2F0E94D70E672B682B692B1B
:1036B00031F4CF5FC730B1F780E0CF91089581E05A
:1036C000FCCF0E94DE130E94E80E0C94200B1F9288
:1036D0000F920FB60F9211248F939F93AF93BF93C6
:1036E00080916E02811113C080919A0290919B0289
:1036F000A0919C02B0919D024196A11DB11D8093A5
:103700009A0290939B02A0939C02B0939D02BF915A
:10371000AF919F918F910F900FBE0F901F901895B2
:1037200082E084BD93E095BD9AEF97BD80936E00D3
:1037300008952FB7F89480919A0290919B02A091DE
:103740009C02B0919D022FBF0895CF92DF92EF921D
:10375000FF920F931F932FB7F89440919A025091C4
:103760009B0260919C0270919D022FBF6A017B01B8
:10377000EE24FF248C0130E020E0C016D106E206E2
:10378000F30650F0481B590BCA011F910F91FF908F
:10379000EF90DF90CF90089541505109F3CF1F92E1
:1037A0000F920FB60F9211248F939F93AF93BF93F5
:1037B00080919A0290919B02A0919C02B0919D02EF
:1037C0000196A11DB11D80939A0290939B02A09334
:1037D0009C02B0939D02BF91AF919F918F910F90EA
:1037E0000FBE0F901F9018950E947B23F8942FEF27
:1037F00087EA91E6215080409040E1F700C0000048
:1038000087E090EBDC018093AD029093AE02A09331
:10381000AF02B093B00288E19CE00FB6F894A8958F
:10382000809360000FBE90936000FFCF8F929F92B5
:10383000AF92BF92EF92FF920F931F93CF93C0E08E
:10384000E82EF12C8C2F0E94D70E4B015C0110E06A
:1038500000E0D501C401002E04C0B695A795979548
:1038600087950A94D2F780FD13C00F5F1F4F033175
:10387000110579F7CF5FC73029F780E0CF911F910D
:103880000F91FF90EF90BF90AF909F908F90089511
:10389000602F7C2F80E00E94230BE816F90629F7A1
:1038A00081E0ECCFCF93C82F8CE20E94161C8823B6
:1038B00021F08C2FCF910C94161C80E0CF910895AD
:1038C000CF930E94F61A811102C00E94DC1AC5E64D
:1038D00008C00E94D50D8FE39CE90197F1F700C065
:1038E0000000C150B1F789E20E94521C8111EFC063
:1038F0008AE20E94521C81110E94DC1A85E00E941B
:10390000521C81110E94F41B0E94011B80936D02C6
:1039100087E00E94521C882371F08BE10E94521CA8
:10392000882309F4B1C090916D02892F8D7F91FF9A
:10393000826080936D0280916D020E94051B0E943F
:10394000131B90E090939F0280939E0280EE0E9452
:10395000521C882341F090919E02892F8E7F90FF08
:10396000816080939E0289E30E94521C882341F06B
:1039700090919E02892F8D7F91FF826080939E029D
:1039800082EE0E94521C882341F090919E02892F62
:103990008B7F92FF846080939E0286EE0E94521C71
:1039A000882341F090919E02892F877F93FF886042
:1039B00080939E0283EE0E94521C882341F09091D6
:1039C0009E02892F8F7E94FF806180939E0285E303
:1039D0000E94521C882341F090919E02892F8F7D76
:1039E00095FF806280939E0281E30E94521C88238F
:1039F00041F090919E02892F8F7B96FF8064809387
:103A00009E0281E10E94521C882341F090919E0207
:103A1000892F97FB87F9805880939E0280919E02A0
:103A20000E94171B87E20E94521CC82F8EE10E9441
:103A3000521C8111C2608FE10E94521C8111C4602E
:103A400080E20E94521C8111C86081E20E94521CD7
:103A50008111C06182E20E94521C8111C06283E226
:103A60000E94521C8111C06484E20E94521C88236F
:103A700041F1C0688C2F0E940E1B6C2F70E090E00B
:103A800080E0CF910C94B2178EE00E94521C8823E4
:103A900039F090916D02892F8B7F92FF846049CF1E
:103AA00080E10E94521C90916D02882329F0892F99
:103AB000877F93FF88603DCF892F8E7F90FF816045
:103AC00038CFC111D7CF0E940A1B682FD7CFCF9113
:103AD00008958091710280FF12C06091050185E018
:103AE000689FB00111247595679575956795603845
:103AF0007105A8F561157105A1F1862F089581FF63
:103B000009C06091050185E0689FB0011124759599
:103B10006795EDCF82FF07C06091050185E0689F42
:103B2000B0011124E4CF209172022223A9F09091D8
:103B300004016091050185E0689FB00111242917F7
:103B4000B0F6269FA001279F500D1124692F70E029
:103B5000CA010E94B227CBCF65E070E0CECF8FE7DD
:103B6000089581E008958091710280FF0CC06091FA
:103B7000030170E0759567957595679561157105F9
:103B800049F1862F089581FF06C06091030170E01E
:103B900075956795F3CF6091030182FD0BC09091FD
:103BA00072029923A1F0609102018091030196179E
:103BB00038F0682F70E06038710500F38FE70895E2
:103BC000899FC001112470E00E94B227F4CF61E008
:103BD00070E0D7CF81E00895803F31F40E94691DE5
:103BE0008195809375020895813F19F40E94691DA3
:103BF000F8CF823F31F40E94691D81958093740251
:103C00000895833F19F40E94691DF8CF893F29F474
:103C10000E94B31D8093760208958A3F21F40E948A
:103C2000B31D8195F7CF8B3F31F40E94B31D819571
:103C30008093770208958C3F19F40E94B31DF8CF4A
:103C4000843F31F480917302816080937302089500
:103C5000853F21F4809173028260F7CF863F21F483
:103C6000809173028460F1CF873F21F480917302C9
:103C70008860EBCF883F21F4809173028061E5CFAB
:103C80008D3F31F4809171028160809371020895BB
:103C90008E3F21F4809171028260F7CF8F3FB9F798
:103CA000809171028460F1CF803FC1F480917502F0
:103CB00087FD109275028091740281110EC080916F
:103CC000750281110AC080917602811106C080912F
:103CD0007702811102C0109272020895813F29F487
:103CE0008091750218162CF3E6CF90917402823FF2
:103CF00029F497FFE0CF10927402DDCF833F19F4CF
:103D00001916CCF3D8CF893F39F480917602181672
:103D100094F610927602CFCF8A3F29F480917602F2
:103D200087FFC9CFF6CF8B3F39F48091770287FFA9
:103D3000C2CF10927702BFCF8C3F29F480917702D7
:103D40001816BCF3B8CF843F31F4809173028E7F94
:103D500080937302B0CF853F21F4809173028D7FF1
:103D6000F7CF863F21F4809173028B7FF1CF873F9D
:103D700021F480917302877FEBCF883F21F48091FB
:103D800073028F7EE5CF8D3F31F4809171028E7F7B
:103D90008093710290CF8E3F21F4809171028D7FCC
:103DA000F7CF8F3F09F087CF809171028B7FF0CFE3
:103DB00083E792E00E94FF0E0E94991B909370028D
:103DC00080936F0208951F93CF93DF9380916F02CA
:103DD000909170020E94A51BAC01909172022091FB
:103DE000060130E0911106C0209107018AE0289F6A
:103DF000900111244217530780F080917402C09102
:103E0000750210917602D091770281110AC0C1111A
:103E100078C0111176C0D11174C0DF91CF911F917C
:103E200008959F3F19F09F5F90937202181624F433
:103E30000E94691D809374028091740287FF05C0FF
:103E40000E94691D8195809374021C1624F40E94BF
:103E5000691D809375028091750287FF05C00E94DD
:103E6000691D81958093750260917402662331F11A
:103E7000C0917502CC2311F1062E000C770B880B34
:103E8000990B0E94B92623E333E343E35FE30E94E7
:103E90001D270E948126609374026C2FCC0F770B34
:103EA000880B990B0E94B92623E333E343E35FE3D6
:103EB0000E941D270E94812660937502111624F42A
:103EC0000E94B31D809376028091760287FF05C021
:103ED0000E94B31D8195809376021D1624F40E94E2
:103EE000B31D809377028091770287FF05C00E94FF
:103EF000B31D819580937702DF91CF911F910C9430
:103F0000D81E9F3F09F08FCFA0CF85E0E3E7F2E016
:103F1000DF011D928A95E9F71092720210927102E8
:103F20000895809198020895CF93DF9300D01F9257
:103F3000CDB7DEB79C018091A402843019F593E0DF
:103F400099833B832A839093E9008FEF9091E80057
:103F5000815095FD06C095ED9A95F1F7000081110D
:103F6000F5CF8091E80085FF0DC050E040E063E0B0
:103F700070E0CE0101960E94EF218091E8008E77DB
:103F80008093E8000F900F900F90DF91CF910895EC
:103F9000CF93DF9300D01F92CDB7DEB72091A4025C
:103FA000243031F522E02983805891099B838A834C
:103FB00083E08093E9008FEF9091E800815095FDB8
:103FC00006C095ED9A95F1F700008111F5CF80912B
:103FD000E80085FF0DC050E040E063E070E0CE01F6
:103FE00001960E94EF218091E8008E778093E8008F
:103FF0000F900F900F90DF91CF9108959C018091C9
:10400000A4028430F9F482E08093E9009FEF80916C
:10401000E800915085FD06C085ED8A95F1F7000016
:104020009111F5CF8091E80085FF0CC050E040E091
:1040300065E070E0C9010E94EF218091E8008E7771
:104040008093E8000895CF93DF93EC018091A40260
:104050008430F1F4909112019923E9F090919E023D
:1040600097FF19C08093E9008FEF9091E80081508D
:1040700095FD06C095E19A95F1F700008111F5CF05
:104080008091E80050E040E060E270E085FD1AC0F9
:10409000DF91CF91089581E08093E9008FEF9091B7
:1040A000E800815095FD06C095ED9A95F1F7000066
:1040B0008111F5CF8091E80085FFEACF50E040E024
:1040C00068E070E0CE010E94EF218091E8008E77D9
:1040D0008093E80080E2FE01A8E7B2E001900D9233
:1040E0008A95E1F7D5CF8091A302811109C00E9482
:1040F0007B230E94DD238091E20084608093E200B4
:1041000008951092A3020895089508950C94611BD8
:1041100042E061EC81E00E94F92242E061EC82E041
:104120000E94F92242E061EC83E00E94F92242E21F
:1041300061EC84E00C94F9228091A602833009F4AA
:1041400055C030F4813071F1823009F491C0089586
:104150008A3009F47DC08B3009F463C0893009F0DE
:1041600044C08091A502813209F03FC08091A9022C
:104170009091AA02009711F00397B9F58091E80099
:10418000877F8093E8008091E80082FF2AC08091B9
:10419000F100809398028091E8008B778093E8008B
:1041A0000C942D238091A502813AF9F48091E800C6
:1041B000877F8093E8008091A9029091AA02892BC1
:1041C00061F460E288E792E070E00E943E22809114
:1041D000E8008B778093E800089560E090E080E04D
:1041E000F3CF8091A4028111CECF08958091A502D2
:1041F000813AD9F78091A9029091AA02892BA9F757
:104200008091E800877F8093E8008091E80080FF3C
:10421000FCCF809112018093F1008091E8008E77AD
:10422000BDCF8091A502813201F78091A9029091C2
:10423000AA02892BD1F68091E800877F8093E8005D
:104240000E942D238091A702809312010C94DE130B
:104250008091A502813249F68091E800877F8093A2
:10426000E8000E942D238091A8028093990208956E
:104270008091A502813A09F0B8CF8091E800877F4C
:104280008093E8008091E80080FFFCCF8091990244
:10429000C2CF84B7877F84BF0FB6F894A89580916A
:1042A0006000886180936000109260000FBE80E81B
:1042B00080936100109261000E94370F0E947B235F
:1042C0000E94DD238091E20084608093E200789474
:1042D0000E9465260E94390F88E091E00E94E30E5B
:1042E0008091A402853019F00E943F0FF9CF0E94FF
:1042F0001C1B8091A202882399F30E944A1B8823E9
:1043000079F30E94D921ECCF292F332723303105AF
:1043100079F158F421303105F1F02230310519F1ED
:1043200090E080E030E020E01AC02132310599F1C0
:1043300022323105A9F7643098F770E0FB01EE0FE7
:10434000FF1FEF5CFE4F20813181635D7E4FFB01DB
:10435000808190E004C082E190E025ED31E1FA0136
:104360003183208308958DE690E028E631E1F7CF90
:1043700099278130910561F028F0029789F6E8E3EA
:10438000F1E102C0E4E6F1E1849190E09F01E7CF22
:10439000ECE4F1E1F9CF643008F0C2CFE62FF0E0B1
:1043A000EE0FFF1FE75CFE4F2081318189E090E036
:1043B000D6CF84E189BD86E189BD09B400FEFDCF79
:1043C0008091D8008F7D8093D8008091E00082603A
:1043D0008093E0008091E00081FDFCCF0895AF92D2
:1043E000BF92CF92DF92FF920F931F93CF93DF93F1
:1043F0006C01EB018A010E944C23F82E811123C02D
:104400000115110539F0F80180819181C81BD90B84
:10441000C80ED91EB12CA12C2097A9F08091E800DC
:1044200085FD22C08091E8008E778093E800011519
:104430001105A1F0F80180819181A80EB91EB18209
:10444000A08285E0F82E8F2DDF91CF911F910F91E3
:10445000FF90DF90CF90BF90AF9008950E944C23C3
:104460008823D1F2F82EEFCFF60181916F0180936E
:10447000F1002197FFEFAF1ABF0ACECFFC01809168
:10448000AB029091AC0286179707A0F061157105F9
:1044900029F49091E8009E779093E80090E06115F0
:1044A000710551F4911108C08091E80082FF33C07A
:1044B00080E00895BC01F2CF8091A4028823B9F175
:1044C0008530B9F18091E80083FD2FC08091E8002C
:1044D00082FDEACF8091E80080FFE1CF2091F200D9
:1044E0003091F3006115710519F02830310558F04D
:1044F00091E02830310509F090E02091E8002E7716
:104500002093E800CCCF81918093F1006150710934
:104510002F5F3F4FE7CF8091A402882341F0853081
:1045200041F08091E80083FFBFCF81E0089582E0F1
:10453000089583E00895FC018091AB029091AC0254
:1045400086179707A0F06115710529F48091E8009E
:104550008E778093E80090E06115710551F4911118
:1045600008C08091E80082FF34C080E00895BC015B
:10457000F2CF8091A4028823C1F18530C1F18091EE
:10458000E80083FD30C08091E80082FDEACF809191
:10459000E80080FFE1CF2091F2003091F300611537
:1045A000710519F02830310558F091E028303105B7
:1045B00009F090E08091E8008E778093E800CCCFFE
:1045C00084918093F1003196615071092F5F3F4FC4
:1045D000E6CF8091A402882341F0853041F080919C
:1045E000E80083FFBECF81E0089582E0089583E074
:1045F0000895982F973028F08F708093E90081E01C
:1046000008959093E900242F762F50E0981731F009
:104610007091EC002091ED005091F00021FD02C05E
:104620009F5FE8CF3091EB003E7F3093EB003091FD
:10463000ED003D7F3093ED003091EB003160309321
:10464000EB007093EC002093ED005093F00020916C
:10465000EE0027FDE5CF80E008958091A50287FF59
:1046600013C08091E80082FF06C08091E8008B773C
:104670008093E80004C08091A4028111F2CF0895D4
:104680008091A4028823D9F38091E80080FFF8CFBD
:104690008091E8008E77ECCF2091E4003091E50026
:1046A00085E69091EC0090FF06C09091E80090FFA5
:1046B00006C080E008959091E80092FDFACF9091B5
:1046C000A402992391F0953091F09091EB0095FD23
:1046D00010C04091E4005091E5002417350709F31C
:1046E00081509A01F1F684E0089582E0089583E014
:1046F000089581E008950E94EC230E94F423E0EEE7
:10470000F0E0808181608083E8EDF0E080818F7748
:10471000808319BCA7EDB0E08C918E7F8C93808153
:104720008F7E80831092A30208950F931F93CF93DF
:10473000DF930E94EC230E94F423C8EDD0E088812F
:104740008F77888388818068888388818F7D88833C
:10475000E7EDF0E080818068808319BC1092A402AC
:104760001092A0021092A2021092A10200EE10E09C
:10477000F80180818B7F808388818160888342E01B
:1047800060E080E00E94F922E1EEF0E080818E7F1F
:104790008083E2EEF0E080818160808380818860A8
:1047A0008083F80180818E7F808388818061888307
:1047B000DF91CF911F910F910895E8EDF0E0808196
:1047C0008F7E8083E7EDF0E080818160808381E0EF
:1047D0008093A3020C949523E8EDF0E080818C7F18
:1047E00080831092E20008951092DA001092E100A6
:1047F00008951F920F920FB60F9211240BB60F92CD
:104800002F933F934F935F936F937F938F939F93D8
:10481000AF93BF93EF93FF938091E10082FF0BC0B2
:104820008091E20082FF07C08091E1008B7F80933E
:10483000E1000E9464268091DA0080FF19C0809117
:10484000D80080FF15C08091DA008E7F8093DA0057
:104850008091D90080FF96C084E189BD86E189BD41
:1048600009B400FEFDCF81E08093A4020E94732072
:104870008091E10080FF19C08091E20080FF15C0A7
:104880008091E2008E7F8093E2008091E20080615F
:104890008093E2008091D80080628093D80019BC98
:1048A00085E08093A4020E9485208091E10084FF2E
:1048B00029C08091E20084FF25C084E189BD86E1A2
:1048C00089BD09B400FEFDCF8091D8008F7D809313
:1048D000D8008091E1008F7E8093E1008091E2001A
:1048E0008F7E8093E2008091E20081608093E200FD
:1048F0008091A002882309F44BC084E08093A40235
:104900000E9486208091E10083FF29C08091E2000F
:1049100083FF25C08091E100877F8093E10082E0E2
:104920008093A4021092A0028091E1008E7F809378
:10493000E1008091E2008E7F8093E2008091E200AE
:1049400080618093E20042E060E080E00E94F92212
:104950008091F00088608093F0000E948420FF9195
:10496000EF91BF91AF919F918F917F916F915F91E7
:104970004F913F912F910F900BBE0F900FBE0F9054
:104980001F90189519BC1092A4020E94812070CF2C
:104990008091E30087FD02C081E0B0CF83E0AECF1D
:1049A0001F920F920FB60F9211240BB60F922F93F6
:1049B0003F934F935F936F937F938F939F93AF93A7
:1049C000BF93CF93EF93FF93C091E900CF70809195
:1049D000EC001092E9008091F000877F8093F00056
:1049E00078940E9410251092E9008091F000886070
:1049F0008093F000C093E900FF91EF91CF91BF91B8
:104A0000AF919F918F917F916F915F914F913F9166
:104A10002F910F900BBE0F900FBE0F901F90189507
:104A20001F93CF93DF93CDB7DEB7AA970FB6F89455
:104A3000DEBF0FBECDBFE5EAF2E08091F1008193C9
:104A400022E0ED3AF207C9F70E949C208091E8002D
:104A500083FF42C08091A5029091A6029A3008F08F
:104A60003BC0E92FF0E0E95CFA4D0C94C6274125E4
:104A700065256C2565256C25C025E2256C25372626
:104A80004426803879F0823839F58091A9028F70F8
:104A90008093E9008091EB0085FB882780F91092D4
:104AA000E90006C08091A1029091A202911182605A
:104AB0009091E800977F9093E8008093F100109226
:104AC000F1008091E8008E772DC0282F2D7F21F4F2
:104AD0008823D1F0823059F18091E80083FF0AC029
:104AE0008091E800877F8093E8008091EB008062EE
:104AF0008093EB00AA960FB6F894DEBF0FBECDBF31
:104B0000DF91CF911F9108958091A702813021F705
:104B1000933009F080E08093A2021092E900809126
:104B2000E800877F8093E8000E942D23D5CF8091F5
:104B3000A7028111F2CF8091A9028F7069F2809350
:104B4000E9002091EB0020FFE8CF933031F4809111
:104B5000EB0080628093EB00E0CF9091EB009061DE
:104B60009093EB0021E030E001C0220F8A95EAF734
:104B70002093EA001092EA008091EB008860EACF6F
:104B80008111AACF1091A7021F778091E30080784E
:104B9000812B8093E3008091E800877F8093E80079
:104BA0000E942D238091E80080FFFCCF8091E300DC
:104BB00080688093E30083E0111101C082E080935C
:104BC000A4028ACF8058823008F086CF8091A70255
:104BD0009091A8028C3D23E09207A1F583E08A839F
:104BE0008AE289834FB7F894DE01139620E03EE015
:104BF00051E2E32FF0E050935700E49120FF03C00F
:104C0000E295EF703F5FEF708E2F90E0EA30C0F0DA
:104C1000C7968D939D932F5F243159F74FBF809195
:104C2000E800877F8093E8006AE270E0CE01019699
:104C30000E943E228091E8008B778093E8004CCF61
:104C4000C096E7CFAE014F5F5F4F6091A9020E940F
:104C50008421BC01892B09F43FCF9091E800977F14
:104C60009093E80089819A810E949B22E3CF80384B
:104C700009F032CF8091E800877F8093E80080912F
:104C8000A0028093F1001DCF811126CF9091A70241
:104C9000923008F021CF8091E800877F8093E80070
:104CA0009093A0020E942D238091A002882331F0CE
:104CB00084E08093A4020E9488200ECF8091E300BC
:104CC00087FDF6CF81E0F5CF0895CF938091A402C0
:104CD000882399F0C091E900CF708091EC0080FDAD
:104CE0000EC080E0C82B1092E9008091E80083FD9F
:104CF0000E941025CF70C093E900CF91089580E8FD
:104D0000F1CF0E9488266894B1110C94172708955A
:104D10000E94FC2688F09F5798F0B92F9927B75129
:104D2000B0F0E1F0660F771F881F991F1AF0BA954F
:104D3000C9F714C0B13091F00E941627B1E0089570
:104D40000C941627672F782F8827B85F39F0B93F62
:104D5000CCF3869577956795B395D9F73EF4909502
:104D60008095709561957F4F8F4F9F4F0895E89480
:104D700009C097FB3EF490958095709561957F4FA3
:104D80008F4F9F4F9923A9F0F92F96E9BB27939551
:104D9000F695879577956795B795F111F8CFFAF461
:104DA000BB0F11F460FF1BC06F5F7F4F8F4F9F4F92
:104DB00016C0882311F096E911C0772321F09EE8F0
:104DC000872F762F05C0662371F096E8862F70E056
:104DD00060E02AF09A95660F771F881FDAF7880F30
:104DE0009695879597F9089557FD9058440F551F4C
:104DF00059F05F3F71F04795880F97FB991F61F05D
:104E00009F3F79F087950895121613061406551FD3
:104E1000F2CF4695F1DF08C0161617061806991F3F
:104E2000F1CF86957105610508940895E894BB2734
:104E300066277727CB0197F908950E9430270C94B5
:104E4000A1270E94932738F00E949A2720F09523EB
:104E500011F00C948A270C94902711240C94172796
:104E60000E94F42670F3959FC1F3950F50E0551FF3
:104E7000629FF001729FBB27F00DB11D639FAA27AF
:104E8000F00DB11DAA1F649F6627B00DA11D661FFE
:104E9000829F2227B00DA11D621F739FB00DA11D1F
:104EA000621F839FA00D611D221F749F3327A00DD9
:104EB000611D231F849F600D211D822F762F6A2F75
:104EC00011249F5750409AF0F1F088234AF0EE0FDA
:104ED000FF1FBB1F661F771F881F91505040A9F707
:104EE0009E3F510580F00C948A270C9417275F3F52
:104EF000E4F3983ED4F3869577956795B795F79543
:104F0000E7959F5FC1F7FE2B880F911D96958795BA
:104F100097F9089597F99F6780E870E060E0089539
:104F20009FEF80EC089500240A94161617061806C1
:104F30000906089500240A9412161306140605069D
:104F40000895092E0394000C11F4882352F0BB0F2E
:104F500040F4BF2B11F460FF04C06F5F7F4F8F4F91
:104F60009F4F089597FB072E16F4009407D077FD06
:104F700009D00E94CF2707FC05D03EF4909581957B
:104F80009F4F0895709561957F4F0895EE0FFF1F15
:104F90000024001C0BBE0790F691E02D0994AA1B7B
:104FA000BB1B51E107C0AA1FBB1FA617B70710F014
:104FB000A61BB70B881F991F5A95A9F78095909546
:104FC000BC01CD010895F999FECF92BD81BDF89A3B
:104FD000992780B50895A8E1B0E042E050E00C9434
:104FE0000B28262FF999FECF92BD81BDF89A019723
:104FF00000B4021639F01FBA20BD0FB6F894FA9A21
:10500000F99A0FBE08950196272F0E94F2270C945B
:10501000F127DC01CB01FC01F999FECF06C0F2BDFE
:10502000E1BDF89A319600B40D9241505040B8F766
:065030000895F894FFCF83
:105036004A022808140A321E911F2320FE1FC81F89
:10504600941F0160616263646566679091929394B0
:1050560095F0F1F2F3F430313233343536404D36D3
:1050660039A31256122012E7117A119311AC11C509
:02507600110027
:00000001FF
